S01100002E2E2F50726F746575732E73313966
S32D0000C000000000205DC2000011C3000017C300001DC3000023C3000029C3000000000000000000000000000073
S32D0000C028000000002FC3000035C30000000000003BC3000041C30000F1DE0000FDDE000009DF000015DF000078
S32D0000C05021DF00002DDF000039DF000045DF000051DF00005DDF000069DF000075DF000081DF00008DDF0000A6
S32D0000C07899DF0000A5DF0000B1DF0000BDDF0000C9DF0000D5DF0000E1DF0000EDDF0000F9DF000005E00000CD
S32D0000C0A011E000001DE0000029E0000035E0000041E000004DE0000059E0000065E0000071E000007DE00000EC
S32D0000C0C889E0000095E00000A1E00000ADE00000B9E00000C5E00000D1E00000DDE00000E9E00000F5E0000014
S32D0000C0F001E10000D13301000DE1000019E1000025E1000031E100003DE1000049E1000055E1000061E100007B
S32D0000C1186DE1000079E1000085E1000091E100009DE10000A9E10000B5E10000C1E10000CDE10000D9E10000D1
S32D0000C140E5E10000F1E10000FDE1000009E20000990A010015E2000021E200002DE2000039E2000045E2000081
S32D0000C16851E200005DE2000069E2000075E2000081E200008DE2000099E20000A5E20000B1E20000BDE200008F
S32D0000C190C9E20000D5E20000E1E200008506010045050100E505010075DC000029070100EDE20000F9E200006E
S32D0000C1B805E3000080C4010000000020C816000080C401000000FF1F00000000C81600209C0400000000FF1F0F
S32D0000C1E00000000080B489B000AFF860B9607A60BB68FB61FB68BB6100237B617A697B689A420BD2BA69131DFB
S32D0000C208BB61FB69191DF96112681A607B6904337B61EFE700BF2437BD4680BC704780B485B000AF786039609E
S32D0000C2307B68FB600023BB60BA683B689A4208D2FB681A1DFA6000221A60BB680433BB60F2E700BF1437BD46FE
S32D0000C25880BC704780B586B000AF72B6234B4CF220521A80214B4DF628121A80204B4FF4E9721A801F4B7B615F
S32D0000C2807B691F4A934214D27B691A1D7A611B683B617B691A1D7A611B68FB607B691A1D7A611B68BB60BA68E9
S32D0000C2A8F9683869FFF79AFFE6E77B69134A93420ED27B691A1D7A611B68FB607B691A1D7A611B68BB60B9688B
S32D0000C2D0F868FFF7A8FFECE70B4B7B600B4A7B681A6009F0D9F962B601F08CFD00F062FCFEE700BF0E200540CB
S32D0000C2F800200540BCC10000D4C10000E4C1000008ED00E000C0000080B400AFFEE780B400AFFEE780B400AFF4
S32D0000C320FEE780B400AFFEE780B400AFFEE780B400AFFEE780B400AFFEE780B400AFFEE780B400AFFEE780B426
S32D0000C34800AFFEE7FFFFFFFFFFFFFFFFFFFFFFFFFFFFFFFFFFFFFFFFFFFFFFFFFFFFFFFFFFFFFFFFFFFFFFFF57
S32D0000C370FFFFFFFFFFFFFFFFFFFFFFFFFFFFFFFFFFFFFFFFFFFFFFFFFFFFFFFFFFFFFFFFFFFFFFFFFFFFFFFFC7
S32D0000C398FFFFFFFFFFFFFFFFFFFFFFFFFFFFFFFFFFFFFFFFFFFFFFFFFFFFFFFFFFFFFFFFFFFFFFFFFFFFFFFF9F
S32D0000C3C0FFFFFFFFFFFFFFFFFFFFFFFFFFFFFFFFFFFFFFFFFFFFFFFFFFFFFFFFFFFFFFFFFFFFFFFFFFFFFFFF77
S32D0000C3E8FFFFFFFFFFFFFFFFFFFFFFFFFFFFFFFFFFFFFFFFFFFFFFFFFFFFFFFFFFFFFFFFFFFFFFFFFEFFFFFF50
S32D0000C41010B5054C237833B9044B13B10448AFF300800123237010BDC81600200000000080C4010008B5034B0E
S32D0000C4381BB103490348AFF3008008BD00000000CC16002080C4010080B500AF024807F0DDFD0346184680BD62
S32D0000C460741A002080B582B000AF78603960786808F0E0F802460B461046194601F0F8F9386803F087FE01F090
S32D0000C488B1FB00BF0837BD4680BD80B582B000AF786039607B685B423968184600F004F800BF0837BD4680BD6C
S32D0000C4B080B582B000AF78603960786808F0BAF802460B461046194601F0E4F97B685B42184608F0AFF802466C
S32D0000C4D80B461046194601F0EDF9386803F056FE01F080FB00BF0837BD4680BDFFFFFFFFF0B587B000AF786069
S32D0000C50014237B61824807F0DBFD03468149184608F0ECFE0346002B0CD07D4807F0D0FD03467D49184608F0D0
S32D0000C528D7FE0346002B01D0012300E00023002B02D06FF013037B61734807F0A1FD03464FF00001184608F027
S32D0000C550CDFE0346002B35D06D4807F095FD0346184608F079F804460D46786808F074F863A3D3E9002307F06E
S32D0000C5780FFF02460B462046294608F033FB0346002B19D1604807F07BFD0346184608F05FF804460D4678680B
S32D0000C5A008F05AF856A3D3E9002307F0F7FE02460B462046294608F037FB0346002B01D0012300E00023002B30
S32D0000C5C800F09380504807F05BFD0346184608F03FF804460D46786808F03AF846A3D3E9002307F0D7FE024602
S32D0000C5F00B4601210E462046294608F015FB0346002B01D100231E46F3B2002B22D0404807F03AFD034679680A
S32D0000C618184608F0ABFB0346FB604FF07C51F86808F06AFE0346002B09D0F86808F010F802460B46104619468D
S32D0000C64001F094FA47E07B695B4234491846FFF709FF40E02E4807F017FD0346184607F0FBFF04460D46786816
S32D0000C66807F0F6FF24A3D3E9002307F091FE02460B4601210E462046294608F0B3FA0346002B01D100231E4636
S32D0000C690F3B2002B1FD01E4807F0F6FC03461946786808F067FB03463B614FF07C51386908F026FE0346002B6A
S32D0000C6B809D0386907F0CCFF02460B461046194601F0E0F903E013497869FFF7C7FE0CA1D1E9000103F07AFD53
S32D0000C6E00B4807F0D1FC034619460D4805F0A0FA26E700BF1C37BD46F0BD00BFAFF300809A9999999999C93F3A
S32D0000C708666666666666D63F741A00200000B44200008743295C8F3D0C1A0020FFFFFFFFF0B587B000AF786026
S32D0000C73014237B61804807F0C3FC0346012214467E49184608F0D2FD0346002B01D100231C46E3B2002B02D03B
S32D0000C7586FF013037B61764807F0A0FC03464FF00001184608F0BEFD0346002B35D0704807F094FC0346184618
S32D0000C78007F06AFF04460D46786807F065FF64A3D3E9002307F000FE02460B462046294608F024FA0346002B80
S32D0000C7A819D1634807F07AFC0346184607F050FF04460D46786807F04BFF57A3D3E9002307F0E8FD02460B4668
S32D0000C7D02046294608F028FA0346002B01D0012300E00023002B00F09680534807F05AFC0346184607F030FFFA
S32D0000C7F804460D46786807F02BFF47A3D3E9002307F0C8FD02460B4601210E462046294608F006FA0346002BA0
S32D0000C82001D100231E46F3B2002B25D0424807F039FC03467968184608F09CFA0346FB60F86807F009FF38A322
S32D0000C848D3E9002308F0ECF90346002B09D0F86807F0FEFE02460B461046194601F082F947E07B695B42344987
S32D0000C8701846FFF7F7FD40E02F4807F013FC0346184607F0E9FE04460D46786807F0E4FE23A3D3E9002307F03E
S32D0000C8987FFD02460B4601210E462046294608F0A1F90346002B01D100231E46F3B2002B1FD01F4807F0F2FBA9
S32D0000C8C003461946786808F055FA03463B614FF07C51386908F014FD0346002B09D0386907F0BAFE02460B46AA
S32D0000C8E81046194601F0CEF803E013497869FFF7B5FD0F4807F0D2FB034619460F4805F093F909A1D1E90001EE
S32D0000C91003F060FC23E700BF1C37BD46F0BD00BF9A9999999999C93F333333333333D33F666666666666D63FC3
S32D0000C938741A002000003443295C8F3D0C1A0020F0B587B000AF78608F4807F0B5FB03464FF00001184608F055
S32D0000C960C5FC0346002B35D0894807F0A9FB0346184607F071FE04460D46786807F06CFE4FF00002834B07F012
S32D0000C98807FD02460B462046294608F02BF90346002B19D17C4807F08FFB0346184607F057FE04460D467868E0
S32D0000C9B007F052FE4FF00002764B07F0EFFC02460B462046294608F02FF90346002B01D0012300E00023002B09
S32D0000C9D800F0D3806C4807F06FFB0346184607F037FE04460D46786807F032FE4FF00002664B07F0CFFC024666
S32D0000CA000B4601210E462046294608F00DF90346002B01D100231E46F3B2002B53D05C4807F04EFB03467968A0
S32D0000CA28184608F0A3F90346184607F011FE02460B46C7E902234FF00002554BD7E9020108F0EEF80346002BDD
S32D0000CA5025D04FF00001786808F02AFC0346002B0CD04B4807F02CFB03464C49184608F047FC0346002B01D0C8
S32D0000CA78012300E00023002B7ED1D7E902234FF00000454907F084FC02460B461046194600F026FF6AE04FF0DA
S32D0000CAA00002404BD7E9020108F0BEF80346002B04D0D7E9020100F02DFF5BE03A491420FFF7E7FC56E03248C8
S32D0000CAC807F0FAFA0346184607F0C2FD04460D46786807F0BDFD4FF000022C4B07F058FC02460B4601210E46B8
S32D0000CAF02046294608F07AF80346002B01D100231E46F3B2002B35D0214807F0D9FA03461946786808F02EF95D
S32D0000CB1803467B612349786908F0EEFB0346002B0ED07969204808F021F90346184607F08FFD02460B461046D5
S32D0000CB40194600F0E7FE15E04FF07E51786908F0D7FB0346002B09D0786907F07DFD02460B461046194600F008
S32D0000CB68BFFE03E00E491420FFF79EFC04A1D1E9000103F02BFBE7E600BF1C37BD46F0BD666666666666D63F63
S32D0000CB90741A00200000E03F0080664000C0B343008076400000F03F295C8F3D000034430000B44380B500AFC6
S32D0000CBB800F007F800F00CF800F08EFB0023184680BD80B500AF00F08DFB00BF80BDFFFF80B500AF094806F0B4
S32D0000CBE0FDFF00F025FD00F00FF800F021F900F06BF900F029FA00F0A1FA00F051FB00BF80BD00BF741A002081
S32D0000CC0880B582B000AF4FF00000734900F03AFF4FF00000714900F079FE7148FFF790FE4FF000026F4B4FF0ED
S32D0000CC3000006F4900F042FF00F03EFD6D4807F03FFA034619466C4804F0F2FF694807F029FA03461946684879
S32D0000CC5804F0EAFF4FF00000664903F0B7FA6648FFF76EFE6548FFF75BFD4FF00000644903F0ACFA4FF0000070
S32D0000CC80624900F031FE4FF000005F4903F0A2FA4FF000005E4900F0F9FE4FF000005A4903F098FA4FF00000D3
S32D0000CCA85A4900F033FEFFF7CFFB78607968504804F0A7FF4FF000004FF0000100F08AFB786807F0B3FC40A392
S32D0000CCD0D3E9002307F018FD02460B461046194607F0ACFF03463B60386807F0A3FC02460B461046194600F003
S32D0000CCF8C9FE37A1D1E9000103F068FA4FF00000434900F067FB32A1D1E9000103F05EFA4FF000004FF00001EA
S32D0000CD2000F05CFB4FF000003C4900F01FFF4FF000003B4903F04EFA4FF00000394900F04DFB25A1D1E9000154
S32D0000CD4803F044FA4FF00000354900F0DFFD20A1D1E9000103F03AFA4FF000004FF0000100F038FB1AA1D1E949
S32D0000CD70000103F02FFA4FF000002A4900F02EFB15A1D1E9000103F025FA4FF00000264900F0AAFD4FF00000A6
S32D0000CD984FF0000100F01EFB0DA1D1E9000103F015FA386807F042FC4FF000021D4B07F0EFFA02460B4610466C
S32D0000CDC0194600F0D3FE00BF0837BD4680BD00BF9A999999999910409A9999999999E93F00002C400080464010
S32D0000CDE80000B4420000494000803F40741A00200C1A0020000004400000B04200004A420000E03F00804B40BF
S32D0000CE10008025400000594000004E400000F43F00001C400080514000002A400000F03F80B500AF4FF000008C
S32D0000CE381D4900F055FD4FF000001C4900F092FE4FF000001A4900F00FFB4FF00000194903F0BCF901224FF0B9
S32D0000CE603330174900F0C8FD4FF00000154900F07FFA4FF000000F4900F008FE4FF000004FF0000100F074FABC
S32D0000CE8807A1D1E9000103F0A1F94FF000004FF0000100F0E9FA00BF80BD00BFAFF300809A9999999999E93F9E
S32D0000CEB00000434000001440000059400000F03F3333F33F0000584080B500AF4FF000004B4900F01FFD4FF083
S32D0000CED800004A4900F0D6FD4948FFF721FC4FF00000484900F012FD4FF00000464903F06DF94649464804F02B
S32D0000CF0071FE464807F0C0F803461946424804F08FFE4348FFF7F0FA4FF00000FFF714FD4FF000003F4900F03C
S32D0000CF2821FE4FF000003E4900F054FA4FF000004FF0804100F0A6FD4FF00000394900F049FA4FF00002374B2F
S32D0000CF504FF000004FF0804100F0B0FD4FF00002334B4FF00000334900F0E6FC4FF000022E4B4FF000004FF053
S32D0000CF78804100F09FFD4FF000004FF0000100F029FA4FF00002284B4FF00000284900F0CFFC4FF000001C49E9
S32D0000CFA003F018F94FF00000244900F0DFFD4FF00000204900F0AEFC00224FF00000204900F01AFD4FF0000095
S32D0000CFC8194900F007FA4FF000001C4900F0CAFD07A1D1E9000103F0F9F84FF000004FF0000100F0F7F900BF28
S32D0000CFF080BD00BFAFF300809A9999999999E93F0080404000002B4000007A4200004F400000F03F9CB90100FB
S32D0000D0180C1A0020741A002000009C410000F83F0000594000004E40000049400000344000002E4000001440FC
S32D0000D040000004400000224080B500AF4FF000002F4900F01BFD2F48FFF74EFA4FF000002D4900F041FC2D486D
S32D0000D06807F02AF8034619462B4804F0DDFD2B48FFF766FC274807F01FF803461946264804F0D2FD4FF0000038
S32D0000D090254900F06BFD2348FFF756FC4FF00000224903F097F84FF00000214900F0E0F915A1D1E9000103F0F7
S32D0000D0B88DF84FF000001D4900F054FD10A1D1E9000103F083F84FF000004FF0000100F0CBF94FF00000134937
S32D0000D0E003F078F84FF000000B4900F0C1F94FF00000114900F0CAFC4FF000004FF0000100F0B6F900BF80BD19
S32D0000D108333333333333E33F00001A400000FC4100805640741A00200C1A00200000B44200002E400000F03F71
S32D0000D13000005440000014400000244080B500AF4FF00000474900F0E5FB4FF00000464900F00CFD4548FFF7B8
S32D0000D158E7FA4FF00000414900F0C2FB4248FFF7EFFB4FF00000414900F0FCFC4FF000003A4900F0B5FB3E484F
S32D0000D180FFF7BAF93D48FFF7DFFB4FF00000394900F06EFB00F04CFA00F028FD00F0ECF90346002B27D04FF09F
S32D0000D1A80000354903F012F84FF000002B4900F097FB3248FFF7C4FB4FF43B01304804F074FA4FF000002F496A
S32D0000D1D000F0A0FB4FF000002D4900F057FC4FF000002A4900F080FB00224FF00000294900F002FC34E000F0CC
S32D0000D1F8E3F90346002B26D04FF000001E4902F0E5FF4FF00000154900F06AFB1B48FFF797FBFF211A4804F0F4
S32D0000D22048FA4FF00000194900F05EFB4FF00000184900F02BFC4FF00000144900F06AFB00224FF0000013494F
S32D0000D24800F0D6FB08E04FF400410D4804F02DFA0F490B4804F0C2FC00BF80BD0080564000002A400000684199
S32D0000D2700000B44200003E400000A841000034430000F03F000087430C1A002000003440000010400000084071
S32D0000D298ACB90100FFFFFFFF80B500AF4FF000000B4900F05FFC08A1D1E9000100F018FB4FF00002074B4FF00B
S32D0000D2C00000064900F0FAFB00BF80BDAFF300800000000000C05240000014400000494080B500AF00F02CF8C7
S32D0000D2E800BF80BD80B500AF4FF470710F4803F099FD40F6F1010D4803F0B1FD4FF4C8610B4803F08FFD40F6A2
S32D0000D3104C11094803F0A7FD4FF42471074803F085FD40F2A461054803F09DFD00F008F800BF80BDE4160020F7
S32D0000D338F0160020FC16002080B500AF00F07CF800F006F800F084F800F038F800BF80BD80B500AF4FF000018D
S32D0000D360024803F09DFD00BF80BD00BFFC16002080B582B000AFC7E900014FF000020E4BD7E9000107F0C0F909
S32D0000D38802460B46104619464FF00002094B07F0E1FA02460B461046194607F093FC03461946054803F078FD91
S32D0000D3B000BF0837BD4680BD0080664000005940FC16002080B500AF0249034803F068FD00BF80BD00003443DB
S32D0000D3D8F016002080B582B000AFC7E900014FF00002124BD7E9000107F08AF902460B46104619464FF00002D2
S32D0000D4000D4B07F0ABFA02460B464FF00000094906F0C2FF02460B461046194607F056FC03461946054803F0AA
S32D0000D4283BFD00BF0837BD4680BD00BF0080664000005940F016002080B500AF4FF000000249FFF7C7FF00BFD3
S32D0000D45080BD00BF0000594080B500AF4FF00001024803F01DFD00BF80BD00BFE416002080B582B000AFC7E903
S32D0000D47800014FF000020E4BD7E9000107F040F902460B46104619464FF00002094B07F061FA02460B461046D6
S32D0000D4A0194607F013FC03461946054803F0F8FC00BF0837BD4680BD0080664000005940E416002080B582B09F
S32D0000D4C800AF786039607B68012B10D13B684FF6FF7293420BD10121074803F087FC0521064803F083FC072127
S32D0000D4F0054803F07FFC00BF0837BD4680BD00BFE4160020F0160020FC16002080B500AF4FF6FF710120FFF734
S32D0000D518D5FF80BD80B582B000AF786039607B68012B10D13B684FF6FF7293420BD10121074803F067F902216C
S32D0000D540064803F063F90321054803F05FF900BF0837BD4680BD00BF081700200C1700201017002080B500AFBA
S32D0000D5684FF6FF710120FFF7D5FF80BDFFFFFFFF90B583B000AF0023FB7100F045F801231C460BA3D3E90023C6
S32D0000D59007F02CFB0346002B01D100231C46E3B2002B01D00123FB71FB7918460C37BD4690BD00BFAFF300801D
S32D0000D5B8CDCCCCCCCCCCF43F80B584B000AF0023FB7300F021F8C7E900014FF000020C4BD7E9000107F006FB95
S32D0000D5E00346002B0BD04FF00002084BD7E9000107F01AFB0346002B01D00123FB73FB7B18461037BD4680BD3B
S32D0000D608000004400000F83F80B500AF054803F00BF90346184607F01BF802460B461046194680BD14170020CA
S32D0000D63080B500AF00F00AF8034683F00103DBB2002B00D0F6E700BF80BDFFFF98B500AFFFF7DEFF01231C4682
S32D0000D6584FF00002054B07F0C5FA0346002B01D100231C46E3B2184698BD00BF0000044080B582B000AF786059
S32D0000D68039607B68012B08D13B684FF6FF72934203D11021034803F0B9F800BF0837BD4680BD00BF1417002091
S32D0000D6A880B500AF4FF6FF710120FFF7E1FF80BD80B500AF0C490D4804F0D9F90C4803F07DF80346194609487E
S32D0000D6D004F09BFA0949074804F0CDF9084803F071F803461946034804F08FFA00BF80BDD0B901000C1A002060
S32D0000D6F82C170020D8B901002817002080B500AF034803F06DF8034803F06AF800BF80BD2C17002028170020CB
S32D0000D72080B588B000AFC7E9000111A3D3E90023C7E90623D7E90623D7E9000107F00EF902460B46C7E904238A
S32D0000D7480BA3D3E90023D7E9040106F0D9FF02460B46C7E90223D7E90223104619462037BD4680BDAFF30080D2
S32D0000D770D221337F7CD922400000000000E07340B0B586B000AFC7E90201C7E90023D7E90A0100F07FF8D7E9DA
S32D0000D798000100F08FF8324803F010F80446314803F00CF803462344DA0F13445B10184606F03CFF02460B4639
S32D0000D7C001210C46D7E9020107F02EFA0346002B01D100231C46E3B2002B3AD0224802F0F1FF0346184606F067
S32D0000D7E825FF1DA3D3E9002306F0D4FD02460B4614461D461B4802F0E1FF0346184606F015FF15A3D3E90023B6
S32D0000D81006F0C4FD02460B462046294607F09EF802460B46C7E90423D7E90423D7E9000106F06AFF02460B4628
S32D0000D83810461946D7E9042306F062FF02460B461046194600F036F8A5E700BF1837BD46B0BD00BFAFF3008078
S32D0000D8607B14AE47E17A843F2C1700202817002080B582B000AFC7E90001D7E9000100F009F8D7E9000100F00C
S32D0000D88819F800BF0837BD4680BDFFFF80B582B000AFC7E90001D7E9000107F013FA03461946034800F0B0FD09
S32D0000D8B000BF0837BD4680BD2017002080B582B000AFC7E90001D7E9000107F0FFF9034683F000431946034895
S32D0000D8D800F09AFD00BF0837BD4680BD18170020B0B582B000AFC7E900013C687B6883F000454FF00002044B48
S32D0000D9002046294600F02CF800BF0837BD46B0BD0000344080B582B000AFC7E900014FF00002044BD7E9000116
S32D0000D92800F01AF800BF0837BD4680BD0000344080B584B000AFC7E90201C7E90023D7E90023D7E9020100F0E9
S32D0000D95007F800BF1037BD4680BDFFFFFFFFFFFFB0B58CB002AFC7E90601C7E90423FFF7C9FED7E90423C7E936
S32D0000D97808234FF000024FF00003D7E9060107F031F90346002B13D03B6ABB607B6A83F00043FB60D7E90223F9
S32D0000D9A0C7E90823BB693B60FB6983F000437B60D7E90023C7E906230DA3D3E90023D7E9060106F0A1FE0246DB
S32D0000D9C80B46104619463C6A7B6A83F00045CDE90045D7E90823FFF7CFFE00F003F900BF2837BD46B0BD00BF06
S32D0000D9F0C3F5285C8FC2014080B584B000AFC7E902011346FB71FB79002B05D14FF000001B49FFF72DFF28E069
S32D0000DA18FB79012B0AD14FF000001849FFF74AFF4FF000001649FFF731FF1AE0FB79032B0AD14FF000001049B3
S32D0000DA40FFF728FF4FF000000E49FFF737FF0CE0FB79022B09D14FF000000A49FFF71AFF4FF000000649FFF74D
S32D0000DA6829FFD7E9020102F0B1FB00F0BBF800BF1037BD4680BD00BF00003E4000003EC0008040C080B584B0FA
S32D0000DA9002AFC7E900014FF00002074BCDE900234FF00002044BD7E9000100F01DF800BF0837BD4680BD00BF47
S32D0000DAB800003E4080B586B002AFC7E90201C7E90023D7E90023CDE90023D7E90023D7E9020100F005F800BF12
S32D0000DAE01037BD4680BDFFFF90B587B000AFC7E90201C7E90023FFF705FED7E90201FFF70FFEC7E90401D7E9AE
S32D0000DB080001FFF7D7FED7E90A01FFF7BFFE134802F054FE0446124802F050FE03462344DA0F13445B10184669
S32D0000DB3006F080FD02460B4601210C46D7E9040107F072F80346002B01D100231C46E3B2002B00D0DFE700F010
S32D0000DB5849F800BF1C37BD4690BD00BF281700202C17002080B584B002AFC7E900014FF00002074BCDE9002344
S32D0000DB804FF00002044BD7E9000100F007F800BF0837BD4680BD00BF00003E40B0B58AB002AFC7E90401C7E907
S32D0000DBA80223FFF7ABFDD7E90401FFF7B5FDC7E90601BB683B60FB6883F000437B603C6B7B6B83F00045CDE9BB
S32D0000DBD00045D7E90023D7E90601FFF7D1FD00F005F800BF2037BD46B0BDFFFF80B500AF034800F0CBFB0348D3
S32D0000DBF800F0C8FB00BF80BD181700202017002080B582B000AF786039607B68012B16D13B684FF6FF729342FF
S32D0000DC2011D10B4A00210B4800F072FB084A0121094800F06DFB1721084802F00DFB0821074802F009FB00BF02
S32D0000DC480837BD4680BD00BF000010411817002020170020281700202C17002080B500AF4FF6FF710120FFF707
S32D0000DC70CBFF80BD80B500AF0F4BD3F8A03003F48053002B14BF01230023DBB2002B10D0094BD3F8A030084ABE
S32D0000DC9823F48053C2F8A030064806F0EFFA064B1B68054A23F40053136000BF80BD00BF00C00440941A002030
S32D0000DCC0C0F00F4080B400AF124B4FF480725A63114B5B69104A43F4005353610E4B1B680D4A43F4005313601D
S32D0000DCE80A4B0C4A1A630C4BD3F888310A4A43F08063C2F88831084B9B68074A43F08063936000BFBD4680BC80
S32D0000DD10704700BF00C00440C0F00F4003010A0000E100E080B400AF334B00225A70324B98221A70304B9B7900
S32D0000DD38DBB203F01003002B14BF01230023DBB2002B00D0F2E72A4B9B79DBB29B08DBB203F00303022B14BF45
S32D0000DD6001230023DBB2002B00D0F0E7224B18221A71214B00225A71204B03F580531A461F4B53641C4B5422D0
S32D0000DD885A711B4B9B79DBB203F02003002B0CBF01230023DBB2002B00D0F2E7144B9B79DBB203F04003002B86
S32D0000DDB00CBF01230023DBB2002B00D0F2E70E4B1B78DBB20C4A03F03F03DBB213700A4B9B79DBB29B08DBB298
S32D0000DDD803F00303032B14BF01230023DBB2002B00D0F0E700231846BD4680BC704700BF00400640007004400D
S32D0000DE000000130180B500AF314B03F580539B6B2F4A43F4785302F580529363FFF752FFFFF780FF2B4B5822C9
S32D0000DE281A602A4B1B684FF47A7202FB03F3284A1360274B1B681A46234B03F580535B6C1B0E03F00F0301339C
S32D0000DE50B2FBF3F31A46214B1A601D4B03F58053DB6B1B4A43F0225302F58052D363184B03F580531B6B164A32
S32D0000DE7843F0006302F580521363174B4FF480721A61642002F058F8134B5B69124A23F010035361104B0022FA
S32D0000DEA01A600F4B10225A610E4803F0A5FA02F0A7FD02F005FE0C4802F0A4F80B4806F035FA4FF4FA6002F037
S32D0000DEC84FF900BF80BD00BF0070044058190020541900205C19002000D003400C1A002050190020041B0020A1
S32D0000DEF080B500AFFEF727FA00BF80BD80B500AFFEF721FA00BF80BD80B500AFFEF71BFA00BF80BD80B500AF50
S32D0000DF18FEF715FA00BF80BD80B500AFFEF70FFA00BF80BD80B500AFFEF709FA00BF80BD80B500AFFEF703FA4F
S32D0000DF4000BF80BD80B500AFFEF7FDF900BF80BD80B500AFFEF7F7F900BF80BD80B500AFFEF7F1F900BF80BD68
S32D0000DF6880B500AFFEF7EBF900BF80BD80B500AFFEF7E5F900BF80BD80B500AFFEF7DFF900BF80BD80B500AF8E
S32D0000DF90FEF7D9F900BF80BD80B500AFFEF7D3F900BF80BD80B500AFFEF7CDF900BF80BD80B500AFFEF7C7F9CB
S32D0000DFB800BF80BD80B500AFFEF7C1F900BF80BD80B500AFFEF7BBF900BF80BD80B500AFFEF7B5F900BF80BDA4
S32D0000DFE080B500AFFEF7AFF900BF80BD80B500AFFEF7A9F900BF80BD80B500AFFEF7A3F900BF80BD80B500AFCA
S32D0000E008FEF79DF900BF80BD80B500AFFEF797F900BF80BD80B500AFFEF791F900BF80BD80B500AFFEF78BF942
S32D0000E03000BF80BD80B500AFFEF785F900BF80BD80B500AFFEF77FF900BF80BD80B500AFFEF779F900BF80BDDF
S32D0000E05880B500AFFEF773F900BF80BD80B500AFFEF76DF900BF80BD80B500AFFEF767F900BF80BD80B500AF05
S32D0000E080FEF761F900BF80BD80B500AFFEF75BF900BF80BD80B500AFFEF755F900BF80BD80B500AFFEF74FF9BA
S32D0000E0A800BF80BD80B500AFFEF749F900BF80BD80B500AFFEF743F900BF80BD80B500AFFEF73DF900BF80BD1B
S32D0000E0D080B500AFFEF737F900BF80BD80B500AFFEF731F900BF80BD80B500AFFEF72BF900BF80BD80B500AF41
S32D0000E0F8FEF725F900BF80BD80B500AFFEF71FF900BF80BD80B500AFFEF719F900BF80BD80B500AFFEF713F932
S32D0000E12000BF80BD80B500AFFEF70DF900BF80BD80B500AFFEF707F900BF80BD80B500AFFEF701F900BF80BD56
S32D0000E14880B500AFFEF7FBF800BF80BD80B500AFFEF7F5F800BF80BD80B500AFFEF7EFF800BF80BD80B500AF7F
S32D0000E170FEF7E9F800BF80BD80B500AFFEF7E3F800BF80BD80B500AFFEF7DDF800BF80BD80B500AFFEF7D7F8AD
S32D0000E19800BF80BD80B500AFFEF7D1F800BF80BD80B500AFFEF7CBF800BF80BD80B500AFFEF7C5F800BF80BD95
S32D0000E1C080B500AFFEF7BFF800BF80BD80B500AFFEF7B9F800BF80BD80B500AFFEF7B3F800BF80BD80B500AFBB
S32D0000E1E8FEF7ADF800BF80BD80B500AFFEF7A7F800BF80BD80B500AFFEF7A1F800BF80BD80B500AFFEF79BF825
S32D0000E21000BF80BD80B500AFFEF795F800BF80BD80B500AFFEF78FF800BF80BD80B500AFFEF789F800BF80BDD0
S32D0000E23880B500AFFEF783F800BF80BD80B500AFFEF77DF800BF80BD80B500AFFEF777F800BF80BD80B500AFF6
S32D0000E260FEF771F800BF80BD80B500AFFEF76BF800BF80BD80B500AFFEF765F800BF80BD80B500AFFEF75FF89C
S32D0000E28800BF80BD80B500AFFEF759F800BF80BD80B500AFFEF753F800BF80BD80B500AFFEF74DF800BF80BD0C
S32D0000E2B080B500AFFEF747F800BF80BD80B500AFFEF741F800BF80BD80B500AFFEF73BF800BF80BD80B500AF32
S32D0000E2D8FEF735F800BF80BD80B500AFFEF72FF800BF80BD80B500AFFEF729F800BF80BD80B500AFFEF723F814
S32D0000E30000BF80BD80B500AFFEF71DF800BF80BD80B584B000AFF8600B467A60FB72FB68FA7A1A71FB6800221A
S32D0000E3285A711749786806F0E7FF0346002B02D0134B7B600AE04FF07E51786806F0C8FF0346002B02D04FF047
S32D0000E3507E537B60786806F07FF909A3D3E9002306F0D2F902460B461046194606F0AEFC0246FB681A60FB68E3
S32D0000E37818461037BD4680BDABAAAAAAAAAA20400000404180B582B000AF78607B685B79002B09D07B68002206
S32D0000E3A05A717B6819791E230022034801F064FE00BF0837BD4680BD5019002080B584B000AF786039603B681B
S32D0000E3C87F2B02DD7F23FB7308E03B6813F1800F02DA8023FB7301E03B68FB737B685B79FA7B9A4209D07B68CD
S32D0000E3F0FA7B5A717B681979FA7B1E23034801F03BFE00BF1037BD4680BD00BF50190020B0B584B000AF786071
S32D0000E41839603749386806F051FF0346002B02D0334B3B6008E03349386806F065FF0346002B01D02F4B3B60C0
S32D0000E440386806F009F904460D467B681B68184606F002F94FF00002294B06F07FFA02460B462046294606F03C
S32D0000E4684FF902460B461046194606F02BFC03463B604FF00001386806F034FF0346002B10D0386806F0E4F820
S32D0000E49017A3D3E9002306F037F902460B461046194606F0CBFB0346FB6018E0386806F0D3F84FF00002134BF9
S32D0000E4B806F026F902460B46104619464FF000020D4B06F047FA02460B461046194606F0B1FB0346FB60F9680E
S32D0000E4E07868FFF76BFF00BF1037BD46B0BD00BF52B81E85EB51F43F0000C8C20000C8420000594000006040B0
S32D0000E50880B483B000AF03460A46FB711346BB71BB79002B03D1134B00221A7002E0114B01221A703823FB7156
S32D0000E5300E4B1A78FB791343FB710D4B9B78DBB20B4A43F01003DBB29370094B9B78DBB2074A43F02003DBB251
S32D0000E5589370054AFB79137100BF0C37BD4680BC704700BF2D1700200060064080B483B000AF01237B607B6892
S32D0000E580312B04DC00BF7B6801337B60F7E700BF0C37BD4680BC704780B582B000AF03460A46FB711346BB710A
S32D0000E5A8134B1B7800211846FFF7AAFF00F024F8104AFB79137100F01FF80E4ABB79137100F01AF80B4B9B7856
S32D0000E5D0DBB20A4A23F02003DBB29370074B9B78DBB2064A23F01003DBB29370FFF7C2FF00BF0837BD4680BD89
S32D0000E5F82E1700200060064080B483B000AF174B1B78002B24D100237B60154BDB78DBB203F00203002B0CBF93
S32D0000E62001230023DBB2002B0DD07B6842F21072934203DD0B4B01221A7004E07B6801337B6000BFE5E7084BEB
S32D0000E648DB78DBB2064A43F00203DBB2D37000E000BF0C37BD4680BC704700BF2F1700200060064080B582B062
S32D0000E67000AF0346FB71FB79184600F05FF800BF0837BD4680BD80B582B000AF03460A46FB711346BB7100F031
S32D0000E69835F8FB795B00DBB21846FFF7E3FFBB791846FFF7DFFF00F037F800BF0837BD4680BD80B500AFFF20CF
S32D0000E6C000F03CF80346184680BD80B584B000AF0346FB7100F016F8FB795B005BB243F001035BB2DBB218464E
S32D0000E6E8FFF7C0FFFFF7E5FF0346FB7300F014F8FB7B18461037BD4680BDFFFF80B400AF044B9B68034A43F4B0
S32D0000E7108013936000BFBD4680BC704740F00F4080B400AF044B5B68034A43F48013536000BFBD4680BC7047AD
S32D0000E73840F00F4080B485B000AF0346FB710023BB73164BDB6A03F00043012B0CBF01230023DBB2002B03D071
S32D0000E760FB7B0133FB73F0E70E4BDB6A0D4A43F00043D3620B4AFB7953630A4BDB6A03F40033002B0CBF01239F
S32D0000E7880023DBB2002B00D0F3E7044B9B6BBB73BB7B18461437BD4680BC704700C00A4080B582B000AF204BFB
S32D0000E7B003F580531B6B1E4A43F4805302F5805213631C4B4FF480721A651B4B5B691A4A43F480135361FFF71C
S32D0000E7D8A3FF164B4FF400725A65144B4FF400729A65124B4FF40072DA65124B124A1A60104B124ADA600023F1
S32D0000E8007B607B68092B06DCFF20FFF72FFF7B6801337B60F5E704A1D1E9000101F0DAFC00BF0837BD4680BDA0
S32D0000E8289A9999999999B93F0070044000A0044040F00F4000C00A40000C00800500003E90B486B000AFF860C2
S32D0000E850B9607A60FB68534A93420AD1524B03F580535B6B504A43F4806302F58052536345E0FB684D4A9342A2
S32D0000E8780AD14B4B03F580535B6B494A43F4006302F58052536336E0FB68474A93420AD1434B03F580535B6BEB
S32D0000E8A0414A43F4805302F58052536327E0FB68404A93420AD13C4B03F580535B6B3A4A43F4005302F58052A3
S32D0000E8C8536318E0FB683A4A93420AD1344B03F580539B6A324A43F4806302F58052936209E02F4B03F580530C
S32D0000E8F09B6A2D4A43F4006302F580529362FB68DB78DBB223F00C03DAB2FB68DA70FB6800229A70BB684FF493
S32D0000E9187A7203FB02F27B681B0192FBF3F39CB2FB681B78DBB223F01F03FB75230A9BB2DBB203F01F03DAB263
S32D0000E940FB7D1343DAB2FB681A70E2B2FB685A70BB684FF4FA4203FB02F27B681B0192FBF3F39AB263019BB29E
S32D0000E968D31A9CB2FB689B7ADBB223F01F03FB75E3B203F01F03DAB2FB7D1343DAB2FB689A72FB68DB78DBB25A
S32D0000E99043F00C03DAB2FB68DA7000BF1837BD4690BC704700A006400070044000B0064000C0064000D006401E
S32D0000E9B800A00E4080B483B000AF78607B681B79DBB203F02003002B0CBF01230023DBB2002B00D0F2E77B68BA
S32D0000E9E0DB79DBB218460C37BD4680BC704780B483B000AF78600B46FB707B681B79DBB25BB2DB43DBB2DB0947
S32D0000EA08DBB2002B00D0F4E77B68FA78DA7100BF0C37BD4680BC704780B487B000AFF860B9607A60FB687B6141
S32D0000EA307B685A1E7A60002B14BF01230023DBB2002B06D07B695A1C7A61BA68D2B21A70EEE700BF1C37BD4661
S32D0000EA5880BC704780B584B000AF786039607B681B6BFB60FA683B689A4252D07B681B79002B35D07B685878F3
S32D0000EA807B6803F134010123FA6801F0F7F80346002B14BF01230023DBB2002B01D001233CE07B6800221A710F
S32D0000EAA87B685A6A7B681B6A1344FA689A4217D27B68DB78FB72FB7A012B11D97B681B6AFA681344FB607B6826
S32D0000EAD058787B6803F134010123FA6801F0CEF8FB7A013BFB72EAE73B68002B15D07B6858787B6803F134019E
S32D0000EAF801233A6800F0DAFF0346002B14BF01230023DBB2002B01D0012303E07B683A681A6300231846103779
S32D0000EB20BD4680BD80B584B000AF786000217868FFF794FF0346FB73FB7B002B40F093807B681B78032B7DD180
S32D0000EB487B685B79002B79D07B6800221A637B6834334FF4007200211846FFF75DFF7B68552283F832227B6816
S32D0000EB70AA2283F833227B68522283F834207B68522283F835207B68612283F836207B68412283F837207B685C
S32D0000EB98722283F818227B68722283F819227B68412283F81A227B68612283F81B227B681B69DAB27B6883F86D
S32D0000EBC01C227B681B699BB21B0A9BB2DAB27B6883F81D227B681B691B0CDAB27B6883F81E227B681B691B0E52
S32D0000EBE8DAB27B6883F81F227B68DB68DAB27B6883F820227B68DB689BB21B0A9BB2DAB27B6883F821227B688D
S32D0000EC10DB681B0CDAB27B6883F822227B68DB681B0EDAB27B6883F823227B6858787B6803F134017B685A695B
S32D0000EC38012301F01FF87B6800225A717B685B7800220021184601F0E1F80346002B14BF01230023DBB2002B4B
S32D0000EC6001D00123FB73FB7B18461037BD4680BD80B582B000AF78600B467B807B68002B08D07B681B78002B07
S32D0000EC8804D07B68DB887A889A4201D0092311E07B685B78184601F03BF9034603F00103002B14BF01230023BA
S32D0000ECB0DBB2002B01D0032300E0002318460837BD4680BD80B586B000AF78607B681A687B689B881946104695
S32D0000ECD8FFF7CAFF0346FB75FB7D002B40F0AC807B689B7903F02003002B00F0A5807B689B7903F04003002BF2
S32D0000ED001BD07B681B6858787B6803F128017B689A69012300F0B2FF0346002B14BF01230023DBB2002B01D002
S32D0000ED2801238AE07B689B7923F04003DAB27B689A717B681A687B68DB6919461046FFF789FE0346FB75FB7D79
S32D0000ED50002B75D17B681B6A3B613B690B331A783B690B3342F02002D2B21A707B68DA683B691C33D2B21A7042
S32D0000ED787B68DB689BB21B0A9AB23B691D33D2B21A707B68DB681A0C3B691E33D2B21A707B68DB681A0E3B6946
S32D0000EDA01F33D2B21A707B681A693B691A33D2B21A707B681B699BB21B0A9AB23B691B33D2B21A707B681B69F4
S32D0000EDC81A0C3B691433D2B21A707B681B691B0C9BB21B0A9AB23B691533D2B21A700023FB603B691633FA68EB
S32D0000EDF0D2B21A70FB689BB21B0A9AB23B691733D2B21A70FB681A0C3B691833D2B21A70FB681A0E3B691933C9
S32D0000EE18D2B21A707B689B7923F02003DAB27B689A717B681B6801221A717B681B681846FFF774FE0346FB751E
S32D0000EE40FB7D18461837BD4680BD80B584B000AF78607868FFF736FF0346FB73FB7B002B02D17B6800221A609A
S32D0000EE68FB7B18461037BD4680BDFFFF80B588B000AF7860396080233B610F23FB604FF0FF337B610223FB61FC
S32D0000EE90FB69B3F5807F23D80123BB61BB69102B1AD8FB69BA6902FB03F33A6803FB02F27B68D31ABB60BB68A1
S32D0000EEB8002B09DBBB687A699A4205D9BB687B61FB693B61BB69FB60BB690133BB61E1E7FB695B00FB61D7E7CA
S32D0000EEE01D4BDB6A1C4A23F00803D3621A4BDB6A23F47F2323F47F63BB613B695B081B029AB2FB68013B1B01FB
S32D0000EF08DBB21A43BB691343114A43F46023D3620F4B5B6A03F00803002B0CBF01230023DBB2002B03D00A201E
S32D0000EF3001F01AF9F0E7084BDB6A074A43F00803D362054B1B6B044A43F48013136300BF2037BD4680BD00BF03
S32D0000EF5800100B4080B582B000AF786039607B6800221A60414B424ADA62404BDB6A03F08073002B14BF0123FE
S32D0000EF800023DBB2002B00D0F3E73A4B0022C3F8C020384B4FF481325A60364B28229A62344B4FF001125A6413
S32D0000EFA83B689B6833491846FFF760FF2F4B5B6A03F00303002B14BF01230023DBB2002B00D0F3E72C4B40F2DE
S32D0000EFD043421A602A4B40F243425A60284B4FF488629A60264B40F24342DA60244B40F243421A61224B40F2F2
S32D0000EFF843425A61214B03F580531B6B1F4A43F4003302F580521363184B4FF6FF721A63164B1B4A5A63154B63
S32D0000F020DB6A144A43F00063D362124BDB6A03F00063002B14BF01230023DBB2002B00D0F3E70C4B5B6A03F4A2
S32D0000F0488033002B14BF01230023DBB2002B02D07B6801221A60054B1B6B044A43F08003136300231846083788
S32D0000F070BD4680BD00100B400080000160CC050000D0044000700440B3007F0080B400AF064B5A6A40F20733C7
S32D0000F0981340002B14BF01230023DBB21846BD4680BC704700100B4080B485B000AF7860074B1B6B7A68134079
S32D0000F0C0FB60FB68002B00D1F6E7FB6818461437BD4680BC704700BF00100B4080B584B000AF78607B681B7809
S32D0000F0E803F03F03764A52F82330FB60FB68002B05D17B681B78002B01D00123DCE0714B1B6B704A43F08003A5
S32D0000F11013636E4B5B6A03F00103002B14BF01230023DBB2002B00D0F3E7684A7B685B689360FB6823F4400337
S32D0000F138FB607B685B789B0503F44003FA681343FB607B685B78022B03D1FB6843F40013FB607B685B78042B07
S32D0000F16016D1FB6803F44033B3F5003F08D1FB6823F44033FB60FB6843F44033FB6007E0FB6823F44033FB602E
S32D0000F188FB6843F40033FB604E4B5B684D4A9BB253607B68DB68002B2AD0FB6803F44033B3F5403F03D0FB68C9
S32D0000F1B043F40013FB607B681B7A002B03D0FB6843F01003FB607B68DB68012B03D9FB6843F02003FB607B68ED
S32D0000F1D8DB68B3F1FF3F0BD03A4B5A687B68DB681B04384913434B60FB6843F00203FB60344B00221A60334A6D
S32D0000F200FB68D3603248FFF753FF0346012B14BF01230023DBB2002B09D02C4B1B6B2B4A43F4702343F00103F5
S32D0000F2281363012348E0274B1B6B03F08003002B14BF01230023DBB2002B07D0214B1B6B204A43F0011313639B
S32D0000F250012335E01D4B1B6B03F48033002B14BF01230023DBB2002B08D0184B1B6B174A43F0011313634FF0A4
S32D0000F278FF3321E0FB6803F44033002B15D0114B1A697B681A61FB6803F44033B3F5803F0BD10C4B5A697B680E
S32D0000F2A05A610A4B9A697B689A61084BDA697B68DA61064B1B6B054A43F001031363002318461037BD4680BDC0
S32D0000F2C84CBA010000100B4001000E0080B592B000AF7860396000237B643B68BB63994B7B637B6B002B02D1A7
S32D0000F2F040F601235FE3964B3B633B6B002B02D140F60B2357E33B6B1B68FB62FB6A002B02D140F60B234EE315
S32D0000F3187B6841F20932934200F23F837B68B3F5985F08D87B68032B00F01A837B68092B00F0098331E37B6863
S32D0000F340A3F59853013B082B00F22B8301A252F823F000BF79F3000065F60000C1F800007BF60000B9F60000AE
S32D0000F368DFF7000027F8000069F7000083F700007649786BFFF7EEFD78647B6C002B40F01083002387F843305F
S32D0000F390002387F82B30002387F82A30002387F82930002387F84230002387F8283000233B7200237B7200234A
S32D0000F3B8FB6000233B7400237B6107F108031846FFF788FE0346002B14BF01230023DBB2002B02D001237B6403
S32D0000F3E0E8E240F24C4000F0BFFE08233B7200237B724FF4D573FB6000233B7400237B6107F108031846FFF7D4
S32D0000F40869FEF863FB6B002B09D1BA69FB689A4202D001237B64C9E2012387F84230012387F8283097F82830D0
S32D0000F430002B00F0A58037233B7200237B720023FB6000233B7400237B6107F108031846FFF744FEF863FB6BAE
S32D0000F458002B02D001237B64A8E269233B7200237B720023FB6000233B7400237B6107F108031846FFF72EFEE1
S32D0000F4800346002B14BF01230023DBB2002B02D001237B648EE2BB6903F44013002B6FD00023FB630A2000F060
S32D0000F4A85FFEFB6B0133FB6337233B7200237B720023FB6000233B7400237B6107F108031846FFF707FE0346D6
S32D0000F4D0002B14BF01230023DBB2002B02D001237B6428E069233B7200237B7297F84230002B02D0184BFB602F
S32D0000F4F802E04FF44013FB6000233B7400237B6107F108031846FFF7E5FD0346002B14BF01230023DBB2002BC3
S32D0000F52002D001237B6406E0BB69002B03DBFB6B632B00D8B6E77B6C002B40F03882FB6B632B0BD9002387F8F6
S32D0000F548423019E0441700204819002040BA010000003040012387F8433097F84230002B0AD0002387F8423093
S32D0000F570BB6903F08043002B02D0012387F8423097F82A30002B02D07B6B07221A6097F82930002B02D07B6B47
S32D0000F59808221A6097F82B30002B02D07B6B04221A6097F84330002B09D07B6B02221A6097F84230002B02D0AC
S32D0000F5C07B6B03221A6097F82B30002B0DD097F84330002B09D07B6B05221A6097F84230002B02D07B6B06220D
S32D0000F5E81A60924B00221A60904B00225A608F4B00229A608D4B0022DA608C4B00221A618A4B00225A61FB6A96
S32D0000F6109A68FB6A5B6819461046FFF72BFC854B40F243421A60834B40F243425A60814B4FF488629A607F4BD3
S32D0000F63840F24342DA607D4B40F243421A617B4B40F243425A617A4B03F580531B6B784A43F4003302F5805276
S32D0000F6601363A7E1B86BFFF739FDF863FB6B002B00F09F8102237B649BE1BB6B002B02D10C237B6496E16D4B52
S32D0000F688DB6A1B0A5B0003F4FF73FB63694BDB6A1B0903F00F035A1CFB6B02FB03F3FB63FB6A9A68FB6BB2FBFF
S32D0000F6B0F3F2BB6B1A607DE1BB6B002B02D10C237B6477E1BB6B1B68002B02D10C237B6470E1FFF7DBFC0346A3
S32D0000F6D8002B0CBF01230023DBB2002B3CD0534B00221A60514B00225A60504B00229A604E4B0022DA604D4B0D
S32D0000F70000221A614B4B00225A61FB6A9A68BB6B1B6819461046FFF7ADFB464B40F243421A60444B40F2434260
S32D0000F7285A60424B4FF488629A60404B40F24342DA603E4B40F243421A613C4B40F243425A613B4B03F58053C4
S32D0000F7501B6B394A43F4003302F58052136329E140F60A237B6425E1BB6B002B02D10C237B641FE1314B5B6816
S32D0000F778C3F30C02BB6B1A6018E1BB6B002B02D10C237B6412E1FFF77DFC0346002B0CBF01230023DBB2002B34
S32D0000F7A019D0BB6B1B68B3F5805F02D30C237B6400E1224B5B68214A23F4FF5323F01F0353601E4B5A68BB6B21
S32D0000F7C81B68C3F30C031B4913434B60EEE040F60A237B64EAE0BB6B002B02D10C237B64E4E0144B9B6A5B08CF
S32D0000F7F003F00303FB63FB6B002B03D1BB6B00221A60D7E0FB6B012B03D1BB6B01221A60D0E0FB6B102B03D168
S32D0000F818BB6B02221A60C9E005237B64C6E0BB6B002B09D10C237B64C0E000BF00D004400070044000100B40ED
S32D0000F840FFF724FC0346002B0CBF01230023DBB2002B31D0BB6B1B68002B0AD1584B9B6A574A23F0060393623C
S32D0000F868554B554A9B6A9362A0E0BB6B1B68012B0CD1514B9B6A504A23F0060393624E4B9B6A4D4A43F002034E
S32D0000F89093628FE0BB6B1B68022B0AD1484B9B6A474A23F006039362454B454A9B6A936280E005237B647DE01E
S32D0000F8B840F60A237B6479E0BB6B002B02D10C237B6473E03C4BDB6A3B4A43F00063D362394BDB6A03F00063C7
S32D0000F8E0002B14BF01230023DBB2002B00D0F3E7334B1B6B03F08003002B14BF01230023DBB2002B08D02E4B8B
S32D0000F9081B6B2D4A43F0800313637B6B00221A60294B5B6A03F48033002B14BF01230023DBB2002B07D07B6B89
S32D0000F9301B68002B06D17B6B01221A6002E07B6B00221A607B6B1A68BB6B1A6032E0BB6B1C221A60BB6B0433E8
S32D0000F95804221A60BB6B08334FF41E721A6025E00220FFF7A1FB144B1B6B03F4E003002B14BF01230023DBB2E9
S32D0000F980002B07D00E4B1B6B0D4A43F4E003136304237B640A4B1B6B094A43F03203136308E040F609237B6456
S32D0000F9A804E000BF02E000BF00E000BF7B6C18464837BD4680BD00BF00100B4080B489B000AF786039607B68C0
S32D0000F9D07B61364B3B613B69002B01D100235FE03B691B68022B0BD03B691B68032B07D03B691B68072B03D086
S32D0000F9F83B691B68082B0BD12B4B5B6A03F00403002B14BF01230023DBB2002B00D0F3E73B68FB61FB69002B41
S32D0000FA203DD0FB69B3F5007F28BF4FF40073FB60FB6803339B08BB61BB69002B2AD01C4B1B6B03F4E003002B95
S32D0000FA4814BF01230023DBB2002B09D0164B1B6B154A43F4E00343F02003136300231BE0114B5B6A03F4006320
S32D0000FA70002B0CBF01230023DBB2002B00D0F3E70B497B691A1D7A610A6A1A60BB69013BBB61D1E7FA69FB6897
S32D0000FA98D31AFB61BEE7012318462437BD4680BC704700BF4417002000100B4080B58EB000AFB9607A601A4675
S32D0000FAC00346FB731346BB73414B7B63FB7B002B02D1BB7B002B01D1042375E03D4B1B78DBB203F00103002B83
S32D0000FAE814BF01230023DBB2002B01D0032367E0BB68002B01D1002362E07B6B1B7B002B02D17B685B027B60C6
S32D0000FB10BB7B012B28D111233B7500237B757B68BB6101233B77BB7B3B6207F11403194641F20230FFF7CEFB3B
S32D0000FB380346002B0CBF01230023DBB2002B38D04FF40071B868FFF739FF0346002B14BF01230023DBB2002B11
S32D0000FB602BD00023BB7328E012233B7500237B757B68BB6101233B77BB7B3B6207F11403194641F20230FFF7BA
S32D0000FB88A5FB0346002B0CBF01230023DBB2002B0FD0BB7B5B021946B868FFF70FFF0346002B14BF01230023EE
S32D0000FBB0DBB2002B01D00023BB73BB7B002B01D0012300E0002300BF18463837BD4680BD3017002000000020A1
S32D0000FBD880B487B000AF786039607B68FB603B687B617B69002B3DD07B69B3F5007F28BF4FF400733B617A6974
S32D0000FC003B69D31A7B613B6903339B083B613B69002BEAD0184B1B6B03F4E003002B14BF01230023DBB2002B07
S32D0000FC280AD0134B1B6B124A43F4E00343F0100313634FF0FF3316E00D4B5B6A03F48063002B0CBF0123002323
S32D0000FC50DBB2002B00D0F3E7FB681A1DFA60064A1B6813623B69013B3B61D0E7012318461C37BD4680BC7047EA
S32D0000FC7800100B4080B58EB000AFB9607A601A460346FB731346BB735D4B7B63FB7B002B02D1BB7B002B01D123
S32D0000FCA00423ADE0594B1B78DBB203F00103002B14BF01230023DBB2002B01D003239FE0524B1B78DBB203F0A4
S32D0000FCC80403002B14BF01230023DBB2002B01D0022391E0BB68002B01D100238CE07B6B1B7B002B02D17B6897
S32D0000FCF05B027B60BB7B012B28D118233B7500237B757B68BB6100233B77BB7B3B6207F11403194641F20230DB
S32D0000FD18FFF7DCFA0346002B0CBF01230023DBB2002B38D04FF40071B868FFF751FF0346002B14BF0123002303
S32D0000FD40DBB2002B2BD00023BB7328E019233B7500237B757B68BB6100233B77BB7B3B6207F11403194641F242
S32D0000FD680230FFF7B3FA0346002B0CBF01230023DBB2002B0FD0BB7B5B021946B868FFF727FF0346002B14BF06
S32D0000FD9001230023DBB2002B01D00023BB730D233B7500237B757B6B1B69BB6100233B7700233B6207F1140307
S32D0000FDB8194641F20230FFF789FA0346002B14BF01230023DBB2002B01D0012314E07A6A0D4B1340002B01D026
S32D0000FDE001230DE07B6A03F4F853B3F5106F00D0D5E7BB7B002B01D0012300E0002300BF18463837BD4680BDE5
S32D0000FE0830170020000000200880D9FF80B58CB000AF03463A60FB710B46BB713A4BBB62FB79002B01D00423C0
S32D0000FE3069E0012387F82F30364B1B78DBB203F00103002B14BF01230023DBB2002B01D0032358E0BB79032B33
S32D0000FE5850D801A252F823F071FE000079FE000089FE000099FE0000002387F82F3044E0BB6A9A683B681A60E7
S32D0000FE80002387F82F303CE03B684FF400721A80002387F82F3034E009233B7200237B72BB6A1B69FB60002320
S32D0000FEA83B7400237B6107F10803194641F20230FFF70CFA0346002B14BF01230023DBB2002B01D001231AE086
S32D0000FED07B6A03F44003002B0CD13B6A9B0C03F07F035A1C7B6A1B0A03F00303013B9A403B681A60002387F8CE
S32D0000FEF82F3002E0042387F82F3097F82F3018463037BD4680BD00BF301700200000002080B483B000AF0346FE
S32D0000FF20FB71FB79002B01D0012302E0034B1B78DBB218460C37BD4680BC70470000002080B483B000AF7860BE
S32D0000FF48164B03F580539B6B144A43F0010302F580529363124A7B689360114B05225A600F4B1B680E4A43F02E
S32D0000FF70010313600C4B1B6803F08003002B0CBF01230023DBB2002B00D0F3E7064B1B68054A23F00103136050
S32D0000FF9800BF0C37BD4680BC704700BF007004400000044080B582B000AF786039607B68012B07D13B684FF636
S32D0000FFC0FF72934202D1034800F00EF800BF0837BD4680BD5019002080B500AF4FF6FF710120FFF7E3FF80BD23
S32D0000FFE880B483B000AF78607B6800221A707B6818460C37BD4680BC7047FFFF80B582B000AF78607B681B7892
S32D0001001083F00103DBB2002B21D0134B03F580531A464FF400639362104B4FF440721A620E4B4FF440725A62A7
S32D000100380D4B1B68DA0F13445B104FF4614219460A48FEF7FDFB642000F08AF87B6801221A70012300E00023E2
S32D0001006018460837BD4680BD0070044000D004405419002000B00E4080B582B000AF7860084611461A46034605
S32D00010088FB700B46BB7013467B707F210E48FEF7AAFC08210C48FEF7A6FCFB7819460A48FEF7A1FCBB78194631
S32D000100B00748FEF79CFC7B7819460548FEF797FCFF210348FEF793FC00BF0837BD4680BD00B00E4080B487B088
S32D000100D800AFF860B9607A60FB681F4AA2FB03239B09BA6813447B61FB681B4AA2FB031292094FF47A7101FB38
S32D0001010002F29B1AFB60FB68DB03154AA2FB03239B097A6813443B613B69DB0B7A6913447B613B69C3F30E03E5
S32D000101283B610E4B1B687A699A4209D80B4B1B687A699A4206D1094B5B683A699A4201D9012300E00023002B5F
S32D0001015000D0EAE700BF1C37BD4680BC704700BFD34D621000D0034080B584B000AF7860074B1B68FB60064B02
S32D000101785B68BB607B68BA68F9681846FFF7A6FF00BF1037BD4680BD00D0034080B584B000AF78600B4B1B68F9
S32D000101A0FB600A4B5B68BB600949786804F0ECFE0346184605F0D4F80346BA68F9681846FFF788FF00BF10377D
S32D000101C8BD4680BD00D0034000007A4480B584B000AFC7E900010E4B1B68FB600C4B5B68BB604FF000020B4B2B
S32D000101F0D7E9000104F088FA02460B461046194604F044FD0346BA68F9681846FFF762FF00BF1037BD4680BD5F
S32D0001021800D0034000408F4080B483B000AF0B4B1B684FF47A7202FB03F37B60074B5B684FF47A7202FB03F372
S32D00010240DB0B7A6813447B607B6818460C37BD4680BC704700D0034080B584B000AF78600B46FB700B23FB73C0
S32D00010268FA7BFB781946786800F094F87B6818461037BD4680BDFFFF80B485B000AF78607B68103B002B00DADB
S32D000102901F335B11FB60FB68022B53D0FB68022B75DCFB68002B03D0FB68012B25D06EE0394BD3F880217B688C
S32D000102B8103B594203F01F0301F01F0158BF4B42012101FA03F332491343C1F88031304B1A687B68103B594253
S32D000102E003F01F0301F01F0158BF4B42012101FA03F3294913430B6049E0274BD3F884217B68103B594203F018
S32D000103081F0301F01F0158BF4B42012101FA03F31F491343C1F884311D4B5A687B68103B594203F01F0301F0B7
S32D000103301F0158BF4B42012101FA03F3164913434B6024E0144BD3F888217B68103B594203F01F0301F01F01A1
S32D0001035858BF4B42012101FA03F30D491343C1F888310B4B9A687B68103B594203F01F0301F01F0158BF4B42B6
S32D00010380012101FA03F3044913438B6000BF00BF1437BD4680BC704700E100E080B584B000AF78600B46FB7081
S32D000103A81346BB707B68FA781A70BB78FB737B681B781A46574B9B5C042B00F2A68001A252F823F0E103010087
S32D000103D02D0401007904010011050100C5040100FB7B1B0403F470234D497A68127810464C4A52F8202043F49F
S32D000103F8897343F0010341F82230494B5A697B681B781946454B53F8213003F01F03012101FA03F3DB434249EF
S32D0001042013404B616720FFF72BFF72E0FB7B1B0403F470233D497A6812781046394A52F8202043F4897343F0DB
S32D00010448010341F82230384B5A697B681B781946324B53F8213003F01F03012101FA03F3DB43314913404B6103
S32D000104706820FFF705FF4CE0FB7B1B0403F470232C497A6812781046264A52F8202043F4897343F0010341F8BC
S32D000104982230274B5A697B681B7819461F4B53F8213003F01F03012101FA03F3DB43204913404B616920FFF7A6
S32D000104C0DFFE26E0FB7B1B0403F470231B497A6812781046134A52F8202043F4897343F0010341F82230164BA8
S32D000104E85A697B681B7819460C4B53F8213003F01F03012101FA03F3DB430F4913404B616B20FFF7B9FE00E0A5
S32D0001051000BF00BF1037BD4680BD00BF4CBB01000090044090BB010000F00F4000A0044040F00F4000B004403A
S32D0001053880F00F4000D0044000F10F40B0B48BB000AF234B3C1D1D460FCD0FC495E80F0084E80F0000237B6253
S32D000105607B6A072B32DC1D4BD3F8A0207B6A9B0007F128010B4453F8243C012101FA03F31340002B14BF012331
S32D000105880023DBB2002B19D0134A7B6A52F823305A1C11497B6A41F823200E4BD3F8A0207B6A9B0007F12801EB
S32D000105B00B4453F8243C012101FA03F307491340C1F8A0307B6A01337B62C9E700BF2C37BD46B0BC704700BF36
S32D000105D894BC010000A0044080190020B0B489B000AF234B3C1D1D460FCD0FC495E8030084E803000023FB6173
S32D00010600FB69052B32DC1D4BD3F8A020FB699B0007F120010B4453F81C3C012101FA03F31340002B14BF0123A4
S32D000106280023DBB2002B19D0FB690833124A52F823200132104941F823200E4BD3F8A020FB699B0007F1200153
S32D000106500B4453F81C3C012101FA03F307491340C1F8A030FB690133FB61C9E700BF2437BD46B0BC704700BFA7
S32D00010678B4BC010000B0044080190020B0B48DB000AF244B3C461D460FCD0FC40FCD0FC495E8070084E807003C
S32D000106A00023FB62FB6A0A2B32DC1D4BD3F8A020FB6A9B0007F130010B4453F8303C012101FA03F31340002B50
S32D000106C814BF01230023DBB2002B19D0FB6A0E33124A52F823200132104941F823200E4BD3F8A020FB6A9B00CD
S32D000106F007F130010B4453F8303C012101FA03F307491340C1F8A030FB6A0133FB62C9E700BF3437BD46B0BC2E
S32D00010718704700BFCCBC01000090044080190020B0B487B000AF224B3C461D460FCD0FC42B68236000237B61C6
S32D000107407B69042B32DC1D4BD3F8A0207B699B0007F118010B4453F8183C012101FA03F31340002B14BF012370
S32D000107680023DBB2002B19D07B691933124A52F823200132104941F823200E4BD3F8A0207B699B0007F1180109
S32D000107900B4453F8183C012101FA03F307491340C1F8A0307B6901337B61C9E700BF1C37BD46B0BC704700BF72
S32D000107B8F8BC010000D004408019002080B483B000AF78607B681B781A46044B53F8223018460C37BD4680BC00
S32D000107E0704700BF8019002080B483B000AF78607B681B781946044B002243F8212000BF0C37BD4680BC704713
S32D000108088019002080B483B000AF78600B46FB707B68FA781A707B6818460C37BD4680BC7047FFFFFFFFFFFF0B
S32D0001083080B586B000AF78607B681B781A463E4B53F822303B617B681B781A463B4B9B5CFB733B69DBB203F02A
S32D000108581F03DAB2384B1A723B69DBB203F01F03DAB2354B5A72354B1022C3F88820FB7B002B13D13049324809
S32D0001088000F05AFA304B1B6803F08003802B14BF01230023DBB2002B00D0F3E72A4B1B697B6112E026492948C3
S32D000108A800F046FA274B1B6803F08003802B14BF01230023DBB2002B00D0F3E7214B1B697B611E4BD3F88831A6
S32D000108D01C4A43F01003C2F888311A4B9B68194A43F0100393607B699BB2184603F092FE0DA3D3E9002303F042
S32D000108F807FF02460B46104619460BA3D3E9002304F028F802460B461046194604F0DAF90346BB60BB681846E2
S32D000109201837BD4680BD00BFA4703D0AD7A30A4000000000E0FFEF4010BC01006CBB01006019002000E100E0DE
S32D0001094800B0034000B00B4080B586B000AF78607B681B781A46234B53F822303B617B681B781A46204B9B5CEB
S32D00010970FB733B69DBB203F01F03DAB21D4B1A723B69DBB203F01F03DAB21A4B5A72FB7B002B13D117491848DC
S32D0001099800F0CEF9164B1B6803F08003802B14BF01230023DBB2002B00D0F3E7104B1B697B6112E00D490F489E
S32D000109C000F0BAF90D4B1B6803F08003802B14BF01230023DBB2002B00D0F3E7074B1B697B617B6918461837AA
S32D000109E8BD4680BD10BC01006CBB01007019002000B0034000B00B4098B500AF204B5C221A701F4B10225A703F
S32D00010A101D4B41F234225A801B4B45F278629A80194B10229A71184B0722DA71164B4FF4C022DA60144B1F2283
S32D00010A381A72134B1F225A721149124800F078F90F49114800F074F90F4800F0D2F80D4800F0CFF80A490C48B1
S32D00010A6000F06AF90849094800F066F9094A064B14460FCB84E80F00064B5C221A70054B0422DA7100BF98BDA2
S32D00010A886019002000B0034000B00B407019002080B500AF064B1B680133054A136000F03DF8044B0122C3F80F
S32D00010AB00C2100BF80BD00BF041A00200070034080B500AF0C4B01221A600C4800F01AF8094B0322C3F80821B3
S32D00010AD8094BD3F88831084A43F01003C2F88831054B9B68044A43F01003936000BF80BD00700340A08601005C
S32D00010B0000E100E080B483B000AF7860044A7B68C2F8003100BF0C37BD4680BC704700BF0070034080B584B028
S32D00010B2800AF174B1B68FB60FB68002B24D0FB685B78FB71FB689B68184600F023F80346BB71BB79002B13D005
S32D00010B50FB685B68012B0FDDFB689B681B69BB60BB68002B08D0BB685B685A1CBB685A60BB681B69BB60F3E738
S32D00010B78FB68DB68FB60D7E700BF1037BD4680BD001A002080B584B000AF78607868FFF7DBFEF8607B689B6931
S32D00010BA05B78FB72FB7A002B0FD17B68DB68FA689A420ADD7B689B6901225A707B685B685A1C7B685A6001236A
S32D00010BC813E0FB7A012B0FD17B689B68FA689A420ADA7B689B6900225A707B685B685A1C7B685A60012300E0F2
S32D00010BF0002318461037BD4680BD80B485B000AF78607B681B6A23F040027B681A627B685B6A23F00B027B6817
S32D00010C185A627B685B6A43F007027B685A627B685B6A43F080027B685A627B681B6803F08003002B0CBF01237C
S32D00010C400023DBB2002B00D0F3E77B685B6A03F04003402B0CBF01230023DBB2002B01D0012364E00023FB8115
S32D00010C687B68DB6CFB817B689B6C9AB2FB891344FB817B685B6C9AB2FB891344FB817B681B6C9AB2FB8913444C
S32D00010C90FB817B68DB6B9AB2FB891344FB817B689B6B9AB2FB891344FB81FB895B08FB81FB896FEA43436FEA42
S32D00010CB85343FB81FA897B68DA620023FB817B68DB6EFB817B689B6E9AB2FB891344FB817B685B6E9AB2FB8907
S32D00010CE01344FB817B681B6E9AB2FB891344FB817B68DB6D9AB2FB891344FB817B689B6D9AB2FB891344FB81A7
S32D00010D08FB895B08FB81FB896FEA43436FEA5343FB81FA897B681A637B685B6A23F080027B685A62002318464B
S32D00010D301437BD4680BC704780B483B000AF786039603B681B781A467B689A603B685B781A467B68DA603B68C3
S32D00010D585B881A467B689A613B689B881A467B68DA613B689B791A467B681A623B68DB791A467B685A623B68F8
S32D00010D80DA687B681A653B681B7A1A467B681A603B685B7A1A467B685A6000BF0C37BD4680BC704780B483B0D7
S32D00010DA800AF78607B6818460C37BD4680BC704780B582B000AF786039607B68012B07D13B684FF6FF7293427F
S32D00010DD002D10348FFF7E6FF00BF0837BD4680BD081A002080B500AF4FF6FF710120FFF7E3FF80BD80B483B045
S32D00010DF800AF78600B46FB707B68FA781A707B684FF4FA725A807B6840F6C4129A807B68034A9A607B681846CA
S32D00010E200C37BD4680BC7047000080BF80B483B000AF786039603B68B3F5FA7F04DB3B6840F6C412934204DD9C
S32D00010E487B684FF4FA725A8004E03B689AB27B685A8000BF00BF0C37BD4680BC704780B483B000AF7860396041
S32D00010E703B68B3F5FA7F04DB3B6840F6C412934204DD7B6840F6C4129A8004E03B689AB27B689A8000BF00BFF4
S32D00010E980C37BD4680BC70472DE9904385B000AF786039604FF00001386804F007FA0346002B02D04FF0000357
S32D00010EC03B603249386804F01BFA0346002B01D02E4B3B607B689B681946386804F0E8F90346002B00D04BE0C2
S32D00010EE87B683A689A607B685C887B689B881A467B685B88D31A184603F098FB4FF00002214B03F027FD02468C
S32D00010F100B4690469946386803F09EFB02460B464046494603F0F0FB02460B461046194603F0ACFE03469BB273
S32D00010F382344FB81FB897B73FB891B0A9BB23B737F211248FDF74FFD05211048FDF74BFD7B681B7819460D4873
S32D00010F60FDF745FD3B7B19460A48FDF740FD7B7B19460848FDF73BFDFF210648FDF737FD00BF1437BD46BDE87B
S32D00010F88908300BF000034430080664000B00E4080B582B000AF7860B84B4FF48072DA60B74B4FF480729A6438
S32D00010FB0B54B4FF480721A64B34B4FF480725A64B14B4FF48072DA60B04B5B69AF4A43F008035361AE4B5B699C
S32D00010FD8AD4A43F480235361AB4B5B69AA4A43F480335361A84B5B69A74A43F400335361A54B1B68A44A43F0BF
S32D0001100008031360A24B5B69A14A43F0080353619E4B1B689D4A43F0080313609A4B4FF480725A62984B4FF4B5
S32D0001102880721A62954B4FF480721A61934B4FF480725A61914B4FF480729A618F4B4FF48072DA618D4B4FF45C
S32D0001105080721A638B4B4FF480725A63894B4FF480729A63874B4FF48072DA63854B4FF480721A64834B4FF45C
S32D0001107880725A64814B4FF480729A647F4B4FF48072DA64814B4FF480721A607F4B4FF480729A607D4B4FF4DE
S32D000110A08072DA607B4B4FF480721A61784B5B69774A43F440735361744B5B69734A43F47F2343F0F0035361A6
S32D000110C8734B5B69724A43F01D035361E221786800F0D2FD1D21786800F074FE0221786800F070FE042178682C
S32D000110F000F06CFEE021786800F0C2FD0121786800F064FE6420FFF72FF8E021786800F0B7FD0321786800F079
S32D0001111859FE0121786800F0AFFD0120FFF720F8E621786800F0A8FD0121786800F04AFEA021786800F046FEF9
S32D00011140FF21786800F042FEB021786800F098FD1C21786800F03AFE0F21786800F036FE0121786800F032FE7F
S32D000111683F21786800F02EFE0021786800F02AFEEF21786800F026FE0021786800F022FEB421786800F078FDB4
S32D000111900121786800F01AFE9921786800F016FE0021786800F012FE4521786800F00EFE0221786800F00AFE4A
S32D000111B80021786800F006FE0021786800F002FE0021786800F0FEFDB621786800F054FD0121786800F0F6FD59
S32D000111E00921786800F0F2FD0021786800F0EEFD0E21786800F0EAFD0221786800F0E6FD0021786800F0E2FD8F
S32D000112080021786800F0DEFDBA21786800F034FD0F21786800F0D6FD6420FEF7A1FF3A21786800F029FD602151
S32D00011230786800F0CBFD2A21786800F021FD0021786800F0C3FD0021786800F0BFFD0121786800F0BBFD3F2156
S32D00011258786800F0B7FD2B21786800F00DFD0021786800F0AFFD0021786800F0ABFD0021786800F0A7FDEF21E2
S32D0001128078680BE000B0044000A0044080F00F4040F00F4000C00440C0F00F4000F096FD3621786800F0ECFCC9
S32D000112A80021786800F08EFDF021786800F0E4FC0421786800F086FDB821786800F0DCFC0F21786800F07EFD66
S32D000112D00121786800F07AFD314B1B68304A43F0080313606420FEF73FFF3621786800F0C7FC0021786800F0CA
S32D000112F869FDF021786800F0BFFC0421786800F061FD0121786800F0BCF91E226F21786800F082F8AF22562169
S32D00011320786800F0DBF80021786800F00AFA012301221C49786800F02BFA2921786800F09FFC6420FEF710FF28
S32D00011348BE21786800F098FC0E21786800F03AFDF021786800F036FD0121786800F032FD0021786800F02EFDAC
S32D000113700021786800F02AFD0F21786800F026FD786800F028FA0121786800F0DAF90021786800F0AFF900BF04
S32D000113980837BD4680BD00BF40F00F400CBD010080B582B000AF78607B680022DA617B6801221A627B680E22DC
S32D000113C05A607B681A229A607B6800225A617B6800229A617B684FF4A072DA607B68F0221A617B6800221A70FA
S32D000113E8786801F023FA7B6818460837BD4680BD80B582B000AF7860064B1B78002B05D1044B01221A70786879
S32D00011410FFF7C2FD00BF0837BD4680BD501A002080B58AB002AFF860B9607A607E23009362237A68B968F868A9
S32D0001143800F0B7FE40F24E733B610023FB61FA693B699A4240DA0023BB61214AFB6913441B781A46BB69934284
S32D0001146032DAFB6901331C4AD35C002B06D1FF23FB75FF23BB75FF237B7512E0FB690133154AD35C012B06D111
S32D00011488D423FB750023BB7526237B7505E0B523FB75BA23BB75B0237B757B7DBA7DF97DF86800F0C9F8024647
S32D000114B0FB68DA61F86801F0BDF9F86801F0F6F8BB690133BB61C4E7FB690233FB61BAE700BF2037BD4680BD1E
S32D000114D80400002080B58AB002AFF860B9607A602723009395237A68B968F86800F059FE40F2E6333B6100230D
S32D00011500FB61FA693B699A4240DA0023BB61214AFB6913441B781A46BB69934232DAFB6901331C4AD35C002BAE
S32D0001152806D1FF23FB75FF23BB75FF237B7512E0FB690133154AD35C012B06D10023FB750023BB7500237B75B3
S32D0001155005E0D423FB750023BB7526237B757B7DBA7DF97DF86800F06BF80246FB68DA61F86801F05FF9F8684D
S32D0001157801F098F8BB690133BB61C4E7FB690233FB61BAE700BF2037BD4680BD5407002080B485B000AF78604D
S32D000115A00B46FB70FB78062B29D801A252F823F0D5150100CD150100DB150100E3150100EB150100F1150100FB
S32D000115C8F91501006FF07F43FB6014E00023FB6011E04FF47F03FB600DE04FF47F43FB6009E0FF23FB6006E04D
S32D000115F04FF41903FB6002E0044BFB6000BFFB6818461437BD4680BC704700BF9999990080B584B000AF78604B
S32D0001161839603B681B0CFB733B681B0ABB733B687B737B7BBA7BF97B786800F005F8034618461037BD4680BDB1
S32D0001164080B487B000AF7860084611461A460346FB700B46BB7013467B70FB789B08DBB27B61BB789B08DBB22E
S32D000116683B617B789B08DBB2FB607B691A033B699B011A43FB68134318461C37BD4680BC704780B582B000AF25
S32D0001169078600B46FB70FB7819467868FFF77CFF03461946786800F004F800BF0837BD4680BD80B582B000AFAC
S32D000116B87860396039687868FFF7A6FF02467B681A62786801F0B2F8786800F013FC00BF0837BD4680BD80B502
S32D000116E082B000AF7860786800F008FC00BF0837BD4680BD80B582B000AF78600B46FB70FB7819467868FFF7BE
S32D0001170847FF03461946786800F004F800BF0837BD4680BD80B582B000AF7860396039687868FFF771FF024604
S32D000117307B681A62786801F07DF800BF0837BD4680BD80B582B000AF78600B46FB70FB7819467868FFF720FF36
S32D0001175803461946786800F004F800BF0837BD4680BD80B582B000AF7860396039687868FFF74AFF02467B683E
S32D00011780DA61786801F056F800BF0837BD4680BD80B586B000AFF860B9607A603B6000237B617B69BA68134446
S32D000117A81B78002B0FD07B69BA6813441B783A687968F86800F034FE7B680C337B607B6901337B61E9E700BF00
S32D000117D01837BD4680BD80B582B000AF7860FCF7E3FF67210120FCF74EFF00210220FCF74AFFA0210320FCF759
S32D000117F846FF50210420FCF742FF20210520FCF73EFF20210620FCF73AFF77210720FCF736FF00210820FCF768
S32D0001182032FF00210920FCF72EFF00210A20FCF72AFF04210B20FCF726FF7B684FF0FF32DA637B684FF0FF324C
S32D000118481A6400BF0837BD4680BDFFFFFFFFFFFF80B586B000AFF860B9607A600020FCF730FF0346FB75FB7DE3
S32D0001187003F00203002B00F0CE80FCF743FFE020FCF7F4FE0220FEF76FFCFCF749FF0120FEF76AFCFCF736FF6D
S32D00011898A520FCF7E7FE0120FEF762FCFCF709FF03469BB21B02BB82FCF703FF03469AB2BB8A1343BB82FCF7D0
S32D000118C0FCFE03469BB21B027B82FCF7F6FE03469AB27B8A13437B82BB8A1B09BB827B8A1B097B82FCF71CFFA1
S32D000118E8FB68DB6BB3F1FF3F34D1FB681B6CB3F1FF3F2FD1BA8AFB68DA637A8AFB681A647B8AC3F57F630F33CB
S32D000119107B82BB8A184602F08DFE49A3D3E9002302F0F2FE02460B461046194603F0CEF90246BB681A607B8AEC
S32D00011938184602F07BFE42A3D3E9002302F0E0FE02460B461046194603F0BCF902467B681A605AE0FB68DA6BA6
S32D00011960BB8AD31A1946F86800F074F80346632B0CDCFB681A6C7B8AD31A1946F86800F069F80346632B01DCAD
S32D00011988012300E00023002B2FD0BA8AFB68DA637A8AFB681A647B8AC3F57F630F337B82BB8A184602F042FE63
S32D000119B023A3D3E9002302F0A7FE02460B461046194603F083F90246BB681A607B8A184602F030FE1CA3D3E92C
S32D000119D8002302F095FE02460B461046194603F071F902467B681A600FE0BB68164A1A607B68154A1A60FB68DD
S32D00011A004FF0FF32DA63FB684FF0FF321A64002310E001230EE0BB680D4A1A607B680C4A1A60FB684FF0FF321A
S32D00011A28DA63FB684FF0FF321A64002318461837BD4680BDAFF30080144001144001B43F1EE0011EE001AE3F47
S32D00011A50000080BF80B483B000AF786039603B68002B02DA3B685B423B603B6818460C37BD4680BC704780B5AD
S32D00011A7884B000AF786039600023FB60786800F0FCFAFB683A6813441B78002B12D07B6859697B689869FB68BF
S32D00011AA03A6813441B780246786800F0A3FC786800F0FBFAFB680133FB60E6E700BF1037BD4680BD80B590B095
S32D00011AC800AF7860396007F10C033A680649184604F0CAFC07F10C0319467868FFF7C7FF00BF4037BD4680BD47
S32D00011AF018BD010080B592B000AF786039604FF00001386803F0F2FB0346002B1FD0386803F000FC03467B6480
S32D00011B18786C03F0E1F903461946386803F026F903461F49184603F02BFA0346184603F0EDFB03463B6407F10A
S32D00011B400C003B6C7A6C194904F092FC22E03B6883F000433B60386803F0DCFB03467B64786C03F0BDF903469B
S32D00011B681946386803F002F903460D49184603F007FA0346184603F0C9FB03463B6407F10C003B6C7A6C084948
S32D00011B9004F06EFC07F10C0319467868FFF76BFF00BF4837BD4680BD00007A4428BD01001CBD010080B582B0BF
S32D00011BB800AF78600B46FB70786800F05EFA7B6859697B689A69FB78786800F00FFC786800F067FA00BF08378B
S32D00011BE0BD4680BD80B582B000AF78603960786800F047FA39687868FFF73DFF786800F02BFA00BF0837BD4655
S32D00011C0880BD80B582B000AF78603960786800F034FA39687868FFF751FF786800F018FA00BF0837BD4680BD04
S32D00011C3080B582B000AF78603960786800F021FA39687868FFF756FF786800F005FA00BF0837BD4680BD80B505
S32D00011C5882B000AF78600B46FB70786800F00DFAFB7819467868FFF7A1FF786800F0F0F900BF0837BD4680BDD2
S32D00011C8080B483B000AF78600B46FB704D4B1B684C4A23F0080313604B4B1B684A4A23F480231360484B1B6859
S32D00011CA8474A43F480331360454B1B68444A23F440731360414B1B68404A23F4435323F0300313603E4B1A6837
S32D00011CD0FB785B0203F400733B4913430B603A4B1A68FB785B101B0203F48073364913430B60344B1A68FB78C6
S32D00011CF89B101B0103F01003304913430B602F4B1A68FB78DB105B0103F020032B4913430B602A4B1A68FB784B
S32D00011D201B119B0103F04003264913430B60254B1A68FB785B11DB01DBB2224913430B60204B1A68FB789B11F4
S32D00011D481B0303F480531D4913430B601B4B1A6897F90330DB115BB25B0303F40053174913430B60164B1B680C
S32D00011D70154A23F400331360134B1B68124A43F4003313600F4B1B680E4A43F0080313600D4B1B680C4A43F4C0
S32D00011D9840731360094B1B68084A43F4435343F030031360064B1B68054A43F48023136000BF0C37BD4680BC76
S32D00011DC0704700BF80F00F4040F00F4080B483B000AF78600B46FB70464B1B68454A23F008031360444B1B6850
S32D00011DE8434A43F480331360414B1B68404A43F4802313603E4B1B683D4A23F4407313603A4B1B68394A23F48A
S32D00011E10435323F030031360374B1A68FB785B0203F40073344913430B60334B1A68FB785B101B0203F48073F3
S32D00011E382F4913430B602D4B1A68FB789B101B0103F01003294913430B60284B1A68FB78DB105B0103F0200310
S32D00011E60244913430B60234B1A68FB781B119B0103F040031F4913430B601E4B1A68FB785B11DB01DBB21B4904
S32D00011E8813430B60194B1A68FB789B111B0303F48053164913430B60144B1A6897F90330DB115BB25B0303F46B
S32D00011EB00053104913430B600F4B1B680E4A23F4003313600C4B1B680B4A43F400331360084B1B68074A43F03E
S32D00011ED808031360064B1B68054A23F48023136000BF0C37BD4680BC704700BF80F00F4040F00F4080B586B0AD
S32D00011F0000AF78607B6800225A617B6800229A617B681B6AFB60FB68FB72FB681B0ABB72FB681B0CDBB203F019
S32D00011F2803037B722A217868FFF7A6FE00217868FFF748FF00217868FFF744FF01217868FFF740FF3F217868E3
S32D00011F50FFF73CFF2B217868FFF792FE00217868FFF734FF00217868FFF730FF00217868FFF72CFFEF2178681D
S32D00011F78FFF728FF2C217868FFF77EFE314B1B68304A23F4407313602F4B1B682E4A23F47F2323F0F003136021
S32D00011FA02C4B1B682B4A23F01D031360274B1A687B681B6B254913430B60254B1A687B685B6B234913430B60A9
S32D00011FC8224B1A687B689B6B204913430B601E4B1B681D4A23F0080313601A4B1B68194A43F480231360002349
S32D00011FF07B617B69EF2B19D800233B613B69B3F5A07F0FD2114B1B68104A23F4003313600E4B1B680D4A43F48C
S32D00012018003313603B6901333B61EBE77B6901337B61E2E7084B1B68074A43F008031360044B1B68034A23F4E2
S32D000120408023136000BF1837BD4680BD40F00F4080F00F40C0F00F4080B483B000AF78607B689B69002B07DDEC
S32D000120687B685B695A1C7B685A617B6800229A6100BF0C37BD4680BC704780B582B000AF78607B685A697B681F
S32D000120905B689A4205DB7B6800225A617868FFF72DFF00BF0837BD4680BD80B582B000AF78607B689B695A1C57
S32D000120B87B689A617B689A697B689B689A4205D17868FFF7C5FF7868FFF7D7FF00BF0837BD4680BD80B586B0AE
S32D000120E002AFF860B9607A600123009301237A68B968F86800F059F8F86800F0D7FA00BF1037BD4680BD80B4BB
S32D0001210885B000AF786039607B681B68FB603B681A687B681A603B68FA681A6000BF1437BD4680BC704780B55C
S32D0001213086B002AFF860B9607A603B60BA683B681A447B68009313467A68B968F86800F0ABF8BA683B68D1181D
S32D00012158BA683B68D0187A68BB691344009303467A68F86800F09CF8BA683B68D1187A68BB69D0187A68BB690A
S32D0001218013440093BB680246F86800F08DF87A68BB691A447B680093BB68B968F86800F083F800BF1037BD4614
S32D000121A880BD80B588B000AFF860B9607A603B60FB681B78022B03D0FB681B78032B11D17B68FB61BA6AFB6906
S32D000121D01344013BBB61FB68DA68BB68D31A3B613B683A69D31A01337B610DE0BB68FB613A68FB691344013B98
S32D000121F8BB617B687B61BA6A7B691344013B3B612A21F868FFF738FDFB691B0ADBB203F00F03DBB21946F86869
S32D00012220FFF7D4FDFB69DBB21946F868FFF7CEFDBB691B0ADBB203F00F03DBB21946F868FFF7C4FDBB69DBB2C8
S32D000122481946F868FFF7BEFD2B21F868FFF714FD7B691B0ADBB203F00F03DBB21946F868FFF7B0FD7B69DBB249
S32D000122701946F868FFF7AAFD3B691B0ADBB203F00F03DBB21946F868FFF7A0FD3B69DBB21946F868FFF79AFD2C
S32D000122982C21F868FFF7F0FC00BF2037BD4680BD90B58BB000AFF860B9607A603B603A68BB68D31A1946F868AC
S32D000122C0FFF7C8FBF861BA6B7B68D31A1946F868FFF7C0FBB861BA69FB699A42CCBF01230023FB75FB7D002B17
S32D000122E80CD03A1D07F1080311461846FFF707FF3B4607F138011846FFF701FFBA683B689A420CDD3A4607F1D8
S32D00012310080311461846FFF7F6FE3B1D07F138011846FFF7F0FE3A68BB689A4206D1BB687A681946F868FFF7F7
S32D00012338D1FE55E0BA6B7B68D31A184602F0CCFD04463A68BB68D31A184602F0C5FD03461946204602F0C8FE90
S32D0001236003463B617B68184602F0BAFD03467B62BB683B623B683A6A9A4235DCFB7D002B14D0786A02F068F9A9
S32D000123884FF00002184B02F005F802460B461046194602F04FFC03463A6A1946F868FFF799FE13E0786A02F008
S32D000123B053F94FF000020E4B01F0F0FF02460B461046194602F03AFC03461A46396AF868FFF784FE3969786A1A
S32D000123D802F0CEFC03467B623B6A01333B62C5E72C37BD4690BD00BF0000E03F80B584B000AFF860B9607A60DE
S32D00012400FB707A6813465B0013449B00991CBA6813461B011344DA1CFB78F86800F004F800BF1037BD4680BD1C
S32D0001242880B58EB002AFF860B9607A60FB70FB780A2B06D1F868FFF720FEF868FFF708FEF2E0FB787D2B02D895
S32D00012450FB781F2B01D82023FB70FB78203BFB70112300930C237A68B968F868FFF79DFEFA7813469B00134439
S32D000124786F4AD35C3B75FA7813469B00134401336B4AD35C7B75FA7813469B0013440233674AD35CBB75FA7864
S32D000124A013469B0013440333634AD35CFB75FA7813469B00134404335F4AD35C3B760023BB62BB6A062B00F33A
S32D000124C8A180F86800F050F9F86800F0B3F8002387F82F3000237B627B6A042B35DC07F114027B6A13441B782D
S32D000124F003F00103002B14BF01230023FB76FB7E002B11D097F82F3083F00103DBB2002B03D0F86800F0CAF889
S32D0001251802E0F86800F08EF8F86800F08BF80DE097F82F30002B03D0F86800F01DF902E0F86800F07FF8F868C1
S32D0001254000F07CF8FB7E87F82F307B6A01337B62C6E797F82F30002B03D0F86800F008F902E0F86800F06AF83D
S32D00012568F86800F067F8002387F82F3000233B623B6A042B42DC07F114023B6A13441B7803F00103002B14BF50
S32D0001259001230023BB76BB7E002B11D097F82F3083F00103DBB2002B03D0F86800F07EF802E0F86800F042F83D
S32D000125B8F86800F03FF80DE097F82F30002B03D0F86800F0D1F802E0F86800F033F8F86800F030F8BB7E87F8EE
S32D000125E02F3007F114023B6A13441B785B08D9B207F114023B6A13440A461A703B6A01333B62B9E7BB6A01338F
S32D00012608BB625AE7F86800F0AFF8002387F82F300123FB61FB69232B06DCF86800F00AF8FB690133FB61F5E717
S32D000126303037BD4680BD00BF3C0B002080B483B000AF7860174B1B68164A43F480331360154B1B68144A23F0CA
S32D0001265808031360114B1B68104A43F4802313600E4B1B680D4A23F4003313600B4B1B680A4A43F40033136055
S32D00012680094B1B68084A43F008031360054B1B68044A23F48023136000BF0C37BD4680BC704700BF40F00F40CD
S32D000126A880F00F4080B483B000AF78602B4B1B682A4A43F480331360294B1B68284A23F008031360254B1B689F
S32D000126D0244A43F480231360224B1B68214A23F440731360204B1B681F4A23F47F2323F0F00313601D4B1B6814
S32D000126F81C4A23F01D031360184B1A687B685B6A164913430B60164B1A687B689B6A144913430B60134B1A6831
S32D000127207B68DB6A114913430B600E4B1B680D4A23F4003313600B4B1B680A4A43F400331360094B1B68084A24
S32D0001274843F008031360054B1B68044A23F48023136000BF0C37BD4680BC704740F00F4080F00F40C0F00F402E
S32D0001277080B483B000AF78602B4B1B682A4A43F480331360294B1B68284A23F008031360254B1B68244A43F4F0
S32D0001279880231360224B1B68214A23F440731360204B1B681F4A23F47F2323F0F00313601D4B1B681C4A23F077
S32D000127C01D031360184B1A687B681B6B164913430B60164B1A687B685B6B144913430B60134B1A687B689B6B76
S32D000127E8114913430B600E4B1B680D4A23F4003313600B4B1B680A4A43F400331360094B1B68084A43F0080346
S32D000128101360054B1B68044A23F48023136000BF0C37BD4680BC704740F00F4080F00F40C0F00F4080B485B03A
S32D0001283800AF78607B681B6AFB60FB68FB72FB681B0ABB72FB681B0CDBB203F003037B727B6800225A627B6801
S32D0001286000229A627B680022DA627B6800221A637B6800225A637B6800229A637B681A6BFB7A5B0203F4007300
S32D000128881A437B681A637B681A6BFB7A5B101B0203F480731A437B681A637B685A6BFB7A9B101B0103F010036E
S32D000128B01A437B685A637B685A6BFB7ADB105B0103F020031A437B685A637B685A6BFB7A1B119B0103F040036A
S32D000128D81A437B685A637B685A6BFB7A5B11DB01DBB21A437B685A637B685A6BFB7A9B111B0303F480531A43D7
S32D000129007B685A637B685A6B97F90B30DB115BB25B0303F400531A437B685A637B685A6BBB7A9B0303F48043C2
